:10000000D7EF02F00000000000EF00F00000000059
:0A0010000000000000000000F3D71C
:0A001C00000EACB2010E006E1200DF
:0A002600000E9EBA010E006E1200DB
:10003000AECF01F0ABA202D0AB98AB8801C000F00C
:020040001200AC
:10004200F250026EF29E0500FF6A0150FE6E0050F1
:08005200FD6E02BEF28E1200E9
:0E005A00ACB202D00000FCD7DAC1ADFF12003C
:10006800D5C1E9FFD6C1EAFFEE500101D71905E174
:10007800D5C100F0D6C101F010D0D5C100F0D6C16D
:1000880001F0D54BD62B00C0E9FF01C0EAFFEECF47
:0C00980000F00052E5E1006A016A12006D
:0C00A40059C100F05AC101F0CADF12007F
:1000B000D9C100F00101D90700522BE0D5C1E9FFF9
:1000C000D6C1EAFFEE50000A0EE0D7C1E9FFD8C161
:1000D000EAFFEECF01F0D5C1E9FFD6C1EAFFEE504D
:1000E000011801E110D0D5C1E9FFD6C1EAFFEECF7A
:1000F00000F0D7C1D9FFD8C1DAFFDE50005E016A37
:10010000000E015A08D00101D54BD62BD74BD82B66
:08011000CFD7006A016A12005A
:0C0118004DC100F04EC101F090DF12005C
:10012400D5C102F0D6C103F002C000F003C001F053
:10013400024A032A00C0E9FF01C0EAFFEE5201E0CF
:10014400F3D70101D551025C006ED6510358016EFC
:0A015400010E005E000E015A1200B9
:10015E000101D86BD5C1E9FFD6C1EAFFEECFD7F1C9
:10016E00D751000A0EE0D7C1DAF170DF0101D82BAA
:10017E00D851D525E96E000ED621EA6EEECFD7F115
:04018E00EFD7120095
:100192005A0E0101516F000E526FDA0E536F010EAB
:1001A200546F300E4D6F000E4E6F000E4F6F000EEB
:1001B200506F260E596F000E5A6F000E5B6F000EC5
:1001C2005C6F1C0E556F000E566F000E576F000EBF
:1001D200586FAC8A900EAB6E948E949C9EAA03D0FC
:0801E200AECF00F0FBD71200C4
:1001EA00CDC1D5F1CEC1D6F1B5DF030E0B6E8A0EA5
:1001FA000C6E550E0D6E0D2EFED70C2EFCD70B2E47
:08020A00FAD700000000120009
:10021200F50E0101D56F000ED66FA0DFCF6BD06B4C
:10022200800ED019006E800E005C02E10B0ECF5DD5
:1002320018E2CF510001F225F66E0101D051000102
:10024200F321F76E000E0101D0BFFF0E0001F42171
:10025200F86E0900F5CFDAF1FFDE0101CF4BD02BAA
:10026200DFD7C90ED56F000ED66F78DF060E0B6E84
:10027200130E0C6EAD0E0D6E0D2EFED70C2EFCD78E
:100282000B2EFAD700000000CDDE00520AE0CF6B41
:10029200D06BC8DE005205E0CADE0101CF4BD02B85
:1002A200F8D7CDC1D5F1CEC1D6F158DF060E0B6E0F
:1002B200130E0C6EAD0E0D6E0D2EFED70C2EFCD74E
:1002C2000B2EFAD7000000001A0EDA6FC5DE030EFD
:1002D2000B6E8A0E0C6E550E0D6E0D2EFED70C2E69
:0C02E200FCD70B2EFAD700000000120021
:1002EE000101D36BD46BD15342E0D151FF0AD8A494
:1002FE00D107D1DE0050000A01E1FBD706DF00C0B6
:10030E00D2F10101D351CD25E16E000ECE21E26E68
:10031E0000C0E6FFD32BD451CF25E96E000ED021BD
:10032E00EA6EEE50D21902E1D42B09D0D46BCFC1B4
:10033E00E9FFD0C1EAFFEE50D219D8B4D42BD45174
:10034E00CF25E96E000ED021EA6EEE50000A0EE1C6
:10035E00D451D35D006E016A000E015A0050CD25B6
:10036E00E16E0150CE21E26EE66A06D0BCD7CDC159
:0A037E00E1FFCEC1E2FFE66A1200C3
:10038800000E0101CE1902E1000ECD1934E0CDC1F5
:10039800E9FFCEC1EAFFEE522EE0CFC1D5F1D0C1C0
:1003A800D6F1BCDE00C0D9F1CDC1D5F1CEC1D6F1B0
:1003B800CFC1D7F1D0C1D8F177DE000E011802E124
:1003C800000E001805E1CDC100F0CEC101F015D036
:1003D800010E0101CD25D56F000ECE21D66FCFC1FC
:1003E800E9FFD0C1EAFFEECFD7F13ADE00C0CDF188
:0C03F80001C0CEF1C5D7006A016A1200F6
:10040400070EC16EF00E936E816AB886B06A670EED
:10041400AF6EAC84BCDE310ECD6F010ECE6FE3DE69
:10042400090ECD6F010ECE6FDEDEFF0ECD6F000E16
:06043400CE6FEDDE1200A8
:10043A000900F5CFE6FF0006FBE10106F9E112002B
:10044A00260E0101C16F000EC26F150EC36F000E9A
:10045A00C46F650EC56F000EC66F890EC76F000E9A
:10046A00C86F770EC96F000ECA6F170ECB6F010ED9
:10047A00CC6FD4DD005266E05D0ECD6F010ECE6FFB
:10048A00150ECF6F010ED06FFF0ED16F2BDF020E4C
:10049A000B6E040E0C6EBA0E0D6E0D2EFED70C2EC0
:1004AA00FCD70B2EFAD700005D0ED56F010ED66F62
:1004BA0051DE5D0ECD6F010ECE6F2A0ECF6F010E8B
:1004CA00D06F5DDF0050011018E0817081BA08D04A
:1004DA0081A006D0C1C1CDF1C2C1CEF195DE0DD049
:1004EA0081AA06D0C3C1CDF1C4C1CEF18DDE05D03B
:1004FA00C5C1CDF1C6C1CEF187DE5D0E0101CD6F5A
:10050A00010ECE6F450ECF6F010ED06F38DF00504F
:10051A00011018E0817281BC08D081A206D0C7C13F
:10052A00CDF1C8C1CEF170DE0DD081AC06D0C9C103
:10053A00CDF1CAC1CEF168DE05D0CBC1CDF1CCC1B7
:10054A00CEF162DE820E0C6EDD0E0D6E0D2EFED722
:0A055A000C2EFCD700000000120078
:1005640081B81DD0000E0001DF1902E1000EDE1972
:1005740016E1CD0E0101CD6F000ECE6F48DE010EE7
:100584000001DE6F000EDF6F81B801D0FDD781A8B6
:1005940006D0E00E0101CD6F000ECE6F38DE81A8CB
:0A05A40003D00001DE6BDF6B1200D4
:1005AE00A0EC03F028DF030E0B6E8A0E0C6E550EB8
:1005BE000D6E0D2EFED70C2EFCD70B2EFAD700008B
:0A05CE000000C9DF3BDFFDD7FFD7B7
:1007400010EE15F0380E006E020E016ED80EF66E29
:0E075000050EF76E000EF86E1DEC02F01200A2
:1005D800494E444F4F52204C6967687473204F6EE0
:0105E8000012
:1005E9005468657265206D69676874206265206169
:1005F9002070726F626C656D207769746820796FFD
:10060900757220494E444F4F52204C696768747384
:0F0619002E20706C6561736520636865636B00EC
:10062800494E444F4F52204C6967687473204F6697
:0206380066005A
:10063A004F5554444F4F52204C6967687473204F8A
:02064A006E0040
:10064C005468657265206D69676874206265206105
:10065C002070726F626C656D207769746820796F99
:10066C007572204F5554444F4F52204C6967687433
:10067C00732E20706C6561736520636865636B0015
:04068C00220D0A0031
:1006900054686520706F776572206973206F666695
:0106A0000059
:0206A100000057
:1006A30054686520706F7765722069732062616397
:0206B3006B00DA
:0306B50028070013
:0A06B80041542B434D47533D2200EF
:0A06C200446576696365204F6E0001
:0C06CC0041542B434D47463D310D0A00C0
:0206D8000A0016
:1006DA004F5554444F4F52204C6967687473204FEA
:0306EA0066660041
:0706ED00494E444F4F52003B
:1006F40041542B434E4D493D312C302C322C302C5F
:04070400310D0A00A9
:080708004F5554444F4F5200BD
:0C071000303931353136313835373100A1
:0C071C0030393235383734313738350089
:0C0728003039323538373431373835007D
:0C0734003039393939353231373735006A
:020000040030CA
:0E000000000C1F1EFF8381FF0FC00FE00F409A
:00000001FF
