:100000007BEF03F00000000000EF00F000000000B4
:0A0010000000000000000000F3D71C
:0A001C00000EACB2010E006E1200DF
:0A002600000E9EBA010E006E1200DB
:10003000AECF01F0ABA202D0AB98AB8801C000F00C
:020040001200AC
:10004200F250026EF29E0500FF6A0150FE6E0050F1
:08005200FD6E02BEF28E1200E9
:0E005A00ACB202D00000FCD719C2ADFF1200FC
:1000680014C2E9FF15C2EAFFEE500201161905E1B4
:1000780014C200F015C201F010D014C200F015C26D
:1000880001F0144B152B00C0E9FF01C0EAFFEECFC9
:0C00980000F00052E5E1006A016A12006D
:1000A4000201176B14C2E9FF15C2EAFFEECF16F284
:1000B4001651000A0EE016C219F2CDDF0201172B09
:1000C40017511425E96E000E1521EA6EEECF16F2D3
:0400D400EFD7120050
:0C00D8008EC100F08FC101F0B0DF1200FB
:0C00E40086C100F087C101F0AADF120005
:1000F00014C202F015C203F002C000F003C001F008
:10010000024A032A00C0E9FF01C0EAFFEE5201E003
:10011000F3D702011451025C006E15510358016EB1
:0A012000010E005E000E015A1200ED
:10012A0018C200F00201180700522BE014C2E9FFBE
:10013A0015C2EAFFEE50000A0EE016C2E9FF17C226
:10014A00EAFFEECF01F014C2E9FF15C2EAFFEE5052
:10015A00011801E110D014C2E9FF15C2EAFFEECF7F
:10016A0000F016C2D9FF17C2DAFFDE50005E016A3C
:10017A00000E015A08D00201144B152B164B172BEF
:08018A00CFD7006A016A1200E0
:10019200000E02010D1902E1000E0C1934E00CC22E
:1001A200E9FF0DC2EAFFEE522EE00EC214F20FC2B8
:1001B20015F29DDF00C018F20CC214F20DC215F246
:1001C2000EC216F20FC217F2AFDF000E011802E1E3
:1001D200000E001805E10CC200F00DC201F015D0AE
:1001E200010E02010C25146F000E0D21156F0EC2B7
:1001F200E9FF0FC2EAFFEECF16F235DF00C00CF2C4
:0C02020001C00DF2C5D7006A016A1200AD
:10020E000B0E0B6E260E0C6E5D0E0D6E0D2EFED7AA
:10021E000C2EFCD70B2EFAD700000000AE0E0201FA
:10022E00146F000E156F37DF0E6B0F6B800E0F19EC
:10023E00006E800E005C02E10B0E0E5D18E20E5198
:10024E000001AB25F66E02010F510001AC21F76ED5
:10025E00000E02010FBFFF0E0001AD21F86E090066
:10026E00F5CF19F2F3DE02010E4B0F2BDFD7A70EDF
:10027E00146F000E156F0FDF060E0B6E130E0C6E45
:10028E00AD0E0D6E0D2EFED70C2EFCD70B2EFAD703
:10029E0000000000C1DE00520AE00E6B0F6BBCDEE8
:1002AE00005205E0BEDE02010E4B0F2BF8D70CC23A
:1002BE0014F20DC215F2EFDE060E0B6E130E0C6E5F
:1002CE00AD0E0D6E0D2EFED70C2EFCD70B2EFAD7C3
:1002DE00000000001A0E196FB9DE030E0B6E8A0EA7
:1002EE000C6E550E0D6E0D2EFED70C2EFCD70B2E52
:0802FE00FAD700000000120015
:100306005A0E0101926F000E936F190E946F020E32
:10031600956F300E866F000E876F000E886F000E89
:10032600896F260E8E6F000E8F6F000E906F000E77
:10033600916F1C0E8A6F000E8B6F000E8C6F000E75
:100346008D6FAC8A900EAB6E948E949C9EAA03D051
:08035600AECF00F0FBD712004E
:10035E000CC214F20DC215F29EDE030E0B6E8A0E47
:10036E000C6E550E0D6E0D2EFED70C2EFCD70B2ED1
:08037E00FAD700000000120094
:10038600A6A202D00000FCD7A69C0CC2A9FF0DC2F3
:10039600A8FFA69EA684F2CF00F0F29E550EA76E89
:1003A600AA0EA76EA68200BE02D0F29E01D0F28EE1
:0403B600A6941200F7
:1003BA00A69C0CC2A9FFA69EA680A8CF00F0120098
:1003CA000201126B136B105342E01051FF0AD8A4BA
:1003DA0010077DDE0050000A01E1FBD77EDE00C077
:1003EA0011F2020112510C25E16E000E0D21E26E8E
:1003FA0000C0E6FF122B13510E25E96E000E0F21E5
:10040A00EA6EEE50111902E1132B09D0136B0EC2DA
:10041A00E9FF0FC2EAFFEE501119D8B4132B13519A
:10042A000E25E96E000E0F21EA6EEE50000A0EE16B
:10043A001351125D006E016A000E015A00500C251C
:10044A00E16E01500D21E26EE66A06D0BCD70CC2FD
:0A045A00E1FF0DC2E2FFE66A1200A6
:10046400070EC16EF00E936EFF0E926E816AB8860F
:10047400B06A670EAF6EAC8444DF300E02010C6FBD
:10048400010E0D6F6ADF240E0C6F010E0D6F65DF18
:0C0494001A0E0C6F010E0D6FB8DE120086
:1004A0000900F5CFE6FF0006FBE10106F9E11200C5
:1004B000DB0E0101966F000E976FCA0E986F000E4B
:1004C000996FB80E9A6F000E9B6F670E9C6F000EAF
:1004D0009D6F360E9E6F000E9F6F230EA06F000E55
:1004E000A16F150EA26F000EA36F590EA46F000E20
:1004F000A56F4B0EA66F000EA76F95DD0052D8B406
:10050000C0D0A80E02010C6F010E0D6F480E0E6FC9
:10051000000E0F6F640E106F58DF020E0B6E040E8C
:100520000C6EBA0E0D6E0D2EFED70C2EFCD70B2EB8
:10053000FAD70000A80E0C6F010E0D6F5A0E0E6F49
:10054000010E0F6F26DE0050011041E0A80E0201DF
:100550000C6F010E0D6FA2C10EF2A3C10FF219DED6
:10056000005001101BE1A80E02010C6F010E0D6F6F
:10057000A6C10EF2A7C10FF20CDE005001100EE171
:10058000A80E02010C6F010E0D6FA4C10EF2A5C1E1
:100590000FF2FFDD0050011001E119D0817081BA26
:1005A00008D081A006D096C10CF297C10DF22FDEC3
:1005B0000DD081AA06D098C10CF299C10DF227DEA8
:1005C00005D09AC10CF29BC10DF221DE4ED0A80ECF
:1005D00002010C6F010E0D6F520E0E6F010E0F6FA8
:1005E000D8DD0050011041E0A80E02010C6F010E91
:1005F0000D6FA2C10EF2A3C10FF2CBDD00500110AE
:100600001BE1A80E02010C6F010E0D6FA6C10EF2C8
:10061000A7C10FF2BEDD005001100EE1A80E0201CD
:100620000C6F010E0D6FA4C10EF2A5C10FF2B1DD6A
:100630000050011001E119D0817281BC08D081A263
:1006400006D09CC10CF29DC10DF2E1DD0DD081AC54
:1006500006D09EC10CF29FC10DF2D9DD05D0A0C11C
:100660000CF2A1C10DF2D3DD00D0380E02010C6FE7
:1006700081CF0DF288DE440E02010C6F010E0D6F6A
:100680006EDE820E0C6EDD0E0D6E0D2EFED70C2E64
:08069000FCD70000000012007D
:1006980081B829D0000E0101851902E1000E8419E4
:1006A80022E1730E02010C6F010E0D6FACDD010E1D
:1006B8000101846F000E856F000E851902E1010E9D
:1006C800841905E181A802D0846B856BF5D7610E8A
:1006D80002010C6F010E0D6F96DD380E02010C6FD2
:0E06E80068DE00C081FF0101846B856B12008B
:0E06F6004AEC04F0B4DECDDFD8DEFDD7FFD72E
:1008940010EE15F0710E006E020E016E040EF66E6F
:0E08A400070EF76E000EF86E50EC02F0120018
:0E0704002B3633393939393532313737350034
:100712004F5554444F4F52204C6967687473204FB1
:0307220066660008
:100725004F5554444F4F52204C6967687473204F9E
:020735006E0054
:030737002D2D0065
:0E073A002B3633393135313631383537310011
:0E0748002B36333932353837343137383500F7
:100756005468657265206D696768742062652061FA
:100766002070726F626C656D207769746820796F8E
:100776007572204F5554444F4F52204C6967687428
:10078600732E20706C6561736520636865636B000A
:04079600220D0A0026
:03079A00870800CD
:0A079D0041542B434D47533D220009
:1007A700494E444F4F52204C6967687473204F6617
:0207B7006600DA
:1007B900494E444F4F52204C6967687473204F6EFD
:0107C900002F
:1007CA005468657265206D69676874206265206186
:1007DA002070726F626C656D207769746820796F1A
:1007EA00757220494E444F4F52204C6967687473A2
:0F07FA002E20706C6561736520636865636B000A
:0A080900446576696365204F6E00B8
:0C08130041542B434D47463D310D0A0077
:10081F0041542B434E4D493D312C302C322C302C32
:04082F00310D0A007D
:0E08330041542B434D47443D312C340D0A00F7
:080841004F5554444F4F520083
:07084900494E444F4F5200DD
:1008500054686520706F77657220697320626163E8
:020860006B002B
:1008620054686520706F776572206973206F6666C1
:010872000085
:02087300000083
:02087500DB00A6
:02087700CA00B5
:02087900B800C5
:02087B00670014
:02087D00360043
:02087F00230054
:02088100150060
:0208830059001A
:020885004B0026
:0C0887003039323538373431373835001D
:020000040030CA
:0E000000000C1F1EFF8381FF0FC00FE00F409A
:00000001FF
