:02000000392A9B
:100006008316031398180928000003288312031780
:080016006F08031399000800B4
:10001E00831603136E08F2007208F000F20A7008DD
:10002E008400000803191C2813286E087202F000C1
:0C003E000130F002F101031CF103080086
:10004A00831203176E08F000EE03700803194D2897
:10005A006C0884000008003A03193E286D088400E1
:10006A000008F1006C08840000087106031D3E2890
:10007A004A286C0884000008F0006D088400000813
:10008A00F002F101031CF1034F28EC0AED0A2528BE
:06009A00F001F101080075
:1000A000831603136E08840000086F06031D5B2887
:1000B0006E08F00066286E08F000EE0A70088400F2
:0E00C0000008F0007008031D5028F001080031
:0E00CE008312031366088A006508820008008A
:0E00DC000030831203138C1A0130F00008006C
:1000EA00831203131A08F100981C7D281812181697
:0600FA007108F00008008F
:1001000083120317EC01831603136E0884000008A2
:10011000EF006F08003A03199C286F088312031739
:10012000EF0003200317EC0A6C08831603136E0715
:0A01300084000008EF008928080091
:10013A00831603136B08EE0080200330FB008A301D
:10014A00FC005530FD00FD0BA828FC0BA828FB0B72
:08015A00A828000000000800C5
:10016200831603136B08003A0319E9286B0884000D
:1001720000080319E9286C08EE000F2070088312AA
:100182000317EE00831603136B0883120317EC00A8
:10019200831603136C0883120317ED002520003029
:1001A2007106031DD62800307006031DDD28831654
:1001B20003136B08F000EA28831603136B0AEE00A0
:1001C2006C0884000008EF0050207008EB00B12892
:0401D200F001080030
:1001D6004F3083160313EE008020EC01ED018030D2
:1001E6006D06F00080307002031DFB280B306C0298
:1001F600031817296C0883125D07F0005E080318C0
:10020600013E83166D07F10070088312E500710840
:10021600E60067208A110A120317EF0003208316EF
:10022600EC0A0319ED0AF2285930EE008020063058
:10023600FB001330FC00AD30FD00FD0B2029FC0B4C
:100246002029FB0B2029000000006E2070080319EE
:1002560039298316EC01ED016E207008031939293E
:1002660075208316EC0A0319ED0A2F2983166B08ED
:10027600EE0080200630FB001330FC00AD30FD00A0
:10028600FD0B4329FC0B4329FB0B4329000000000F
:100296001A3083120317EF0003200330FB008A3065
:1002A600FC005530FD00FD0B5629FC0B5629FB0BB7
:0802B6005629000000000800B9
:1002BE0083160313981690308312980083168717AF
:1002CE00071383128C1E6E291A08F0006829080085
:1002DE0083120313061A8C2900303206031D792966
:1002EE0000303106031D8C2920308316EB00EB20E5
:1002FE000130B1000030B200061A86298329061E8D
:10030E008C2933308316EB00EB20061E9029B101A9
:04031E00B201080020
:10032200A03083120313E7004930E8003730E900B8
:100332009030EA005A30EB002430EC00ED01EE017F
:100342006E20700803190A2A6E2070080319BD294D
:100352006D08D03EEF0075206F08840070088000A1
:10036200ED0A0319EE0A0230FC004B30FD00FD0BD2
:10037200B829FC0BB829A5290230FB000430FC0087
:10038200BA30FD00FD0BC329FC0BC329FB0BC329AB
:100392000000D0308316EB006230EC00B120700810
:1003A2000319EA29013083128606861ADF29061C00
:1003B200DF2967088316EB00EB20EA29861EE6296F
:1003C20068088316EB00EB20EA2969088316EB0024
:1003D200EB20D0308316EB005F30EC00B1207008C8
:1003E20003190A2A023083128606061BFF29861C7D
:1003F200FF296A088316EB00EB200A2A061F062A49
:100402006B088316EB00EB200A2A6C088316EB00BC
:10041200EB208230FC00DD30FD00FD0B0E2AFC0BD0
:080422000E2A00000000080092
:10042A000830831603139F00F0308600831286017A
:10043A0019308316990018155F2110308316EB00C6
:10044A009D20DF30EB009D204530EB00EB200800BB
:10045A0067208A110A128000840AE50A0319E60A4B
:08046A00F003031D2D2A080018
:10047200AE2315220330FB008A30FC005530FD000C
:10048200FD0B412AFC0B412AFB0B412A0000000014
:080492006F219121492A4C2A37
:10075C0020308400133083120313F0005F30E50067
:10076C000330E6002D22A03084003F308312F000CD
:10077C00DA30E5000230E6002D22333084003230CE
:10078C008312F0001930E5000330E6002D22103002
:10079C008317840014308312F0004B30E5000330D3
:1007AC00E6002D228313DF3084000C308312F0001E
:1007BC007230E5000330E6002D22243083178400CC
:1007CC0048308312F0005230E5000230E6002D2252
:1007DC00831390308317840040308312F0009A30DA
:0C07EC00E5000230E6002D228313080017
:1004A4004F345534543444344F344F34523420345C
:1004B4004C346934673468347434733420344F34BE
:0604C400663466340034CA
:1004CA0049344E3444344F344F34523420344C344B
:1004DA006934673468347434733420344F3466347E
:0404EA006634003440
:1004EE0049344E3444344F344F34523420344C3427
:1004FE006934673468347434733420344F346E3452
:02050E000034B7
:100510004F345534543444344F344F3452342034EF
:100520004C346934673468347434733420344F3451
:040530006E340034F1
:100534005434683465347234653420346D34693429
:10054400673468347434203462346534203461345C
:100554002034703472346F3462346C3465346D34E6
:1005640020347734693474346834203479346F3403
:100574007534723420344F345534543444344F3445
:100584004F34523420344C3469346734683474340E
:1005940073342E34203470346C34653461347334E1
:1005A4006534203463346834653463346B34003424
:1005B4005434683465347234653420346D346934A9
:1005C40067346834743420346234653420346134DC
:1005D4002034703472346F3462346C3465346D3466
:1005E40020347734693474346834203479346F3483
:1005F40075347234203449344E3444344F344F34D7
:10060400523420344C346934673468347434733469
:100614002E34203470346C3465346134733465346E
:0E062400203463346834653463346B3400343E
:10063200543468346534203470346F34773465341C
:100642007234203469347334203462346134633454
:040652006B340034D1
:1006560044346534763469346334653420344F3435
:040666006E340034BA
:10066A00413454342B3443344D34473453343D34B9
:04067A0022340034F2
:08067E0022340D340A3400346B
:04068600963403346F
:06068A004F34553400342A
:0606900049344E34003431
:10069600413454342B3443344E344D3449343D3490
:1006A60031342C3430342C3432342C3430342C3431
:0806B60031340D340A34003424
:1006BE00543468346534203470346F347734653490
:1006CE00723420346934733420346F3466346634B3
:0206DE000034E6
:0406E00000340034AE
:1006E400413454342B3443344D34473446343D344C
:0806F40031340D340A340034E6
:1006FC0030343934323435343834373434343134AA
:08070C00373438343534003471
:100714003034393439343934393435343234313489
:0807240037343734353400345A
:10072C003034393432343534383437343434313479
:08073C00373438343534003441
:100744003034393431343534313436343134383466
:08075400353437343134003430
:02400E004A2F37
:00000001FF
